{
  "_format": "hh-sol-artifact-1",
  "contractName": "NFT",
  "sourceName": "contracts/NFT.sol",
  "abi": [
    {
      "inputs": [],
      "stateMutability": "nonpayable",
      "type": "constructor"
    },
    {
      "anonymous": false,
      "inputs": [
        {
          "indexed": true,
          "internalType": "address",
          "name": "account",
          "type": "address"
        },
        {
          "indexed": true,
          "internalType": "address",
          "name": "operator",
          "type": "address"
        },
        {
          "indexed": false,
          "internalType": "bool",
          "name": "approved",
          "type": "bool"
        }
      ],
      "name": "ApprovalForAll",
      "type": "event"
    },
    {
      "anonymous": false,
      "inputs": [
        {
          "indexed": true,
          "internalType": "address",
          "name": "previousOwner",
          "type": "address"
        },
        {
          "indexed": true,
          "internalType": "address",
          "name": "newOwner",
          "type": "address"
        }
      ],
      "name": "OwnershipTransferred",
      "type": "event"
    },
    {
      "anonymous": false,
      "inputs": [
        {
          "indexed": true,
          "internalType": "address",
          "name": "operator",
          "type": "address"
        },
        {
          "indexed": true,
          "internalType": "address",
          "name": "from",
          "type": "address"
        },
        {
          "indexed": true,
          "internalType": "address",
          "name": "to",
          "type": "address"
        },
        {
          "indexed": false,
          "internalType": "uint256[]",
          "name": "ids",
          "type": "uint256[]"
        },
        {
          "indexed": false,
          "internalType": "uint256[]",
          "name": "values",
          "type": "uint256[]"
        }
      ],
      "name": "TransferBatch",
      "type": "event"
    },
    {
      "anonymous": false,
      "inputs": [
        {
          "indexed": true,
          "internalType": "address",
          "name": "operator",
          "type": "address"
        },
        {
          "indexed": true,
          "internalType": "address",
          "name": "from",
          "type": "address"
        },
        {
          "indexed": true,
          "internalType": "address",
          "name": "to",
          "type": "address"
        },
        {
          "indexed": false,
          "internalType": "uint256",
          "name": "id",
          "type": "uint256"
        },
        {
          "indexed": false,
          "internalType": "uint256",
          "name": "value",
          "type": "uint256"
        }
      ],
      "name": "TransferSingle",
      "type": "event"
    },
    {
      "anonymous": false,
      "inputs": [
        {
          "indexed": false,
          "internalType": "string",
          "name": "value",
          "type": "string"
        },
        {
          "indexed": true,
          "internalType": "uint256",
          "name": "id",
          "type": "uint256"
        }
      ],
      "name": "URI",
      "type": "event"
    },
    {
      "inputs": [],
      "name": "AVOCADO",
      "outputs": [
        {
          "internalType": "uint256",
          "name": "",
          "type": "uint256"
        }
      ],
      "stateMutability": "view",
      "type": "function"
    },
    {
      "inputs": [],
      "name": "BIRDCAGE",
      "outputs": [
        {
          "internalType": "uint256",
          "name": "",
          "type": "uint256"
        }
      ],
      "stateMutability": "view",
      "type": "function"
    },
    {
      "inputs": [],
      "name": "BUTTERFLY",
      "outputs": [
        {
          "internalType": "uint256",
          "name": "",
          "type": "uint256"
        }
      ],
      "stateMutability": "view",
      "type": "function"
    },
    {
      "inputs": [],
      "name": "DURGA",
      "outputs": [
        {
          "internalType": "uint256",
          "name": "",
          "type": "uint256"
        }
      ],
      "stateMutability": "view",
      "type": "function"
    },
    {
      "inputs": [],
      "name": "EVENINGSKY",
      "outputs": [
        {
          "internalType": "uint256",
          "name": "",
          "type": "uint256"
        }
      ],
      "stateMutability": "view",
      "type": "function"
    },
    {
      "inputs": [],
      "name": "GIRL",
      "outputs": [
        {
          "internalType": "uint256",
          "name": "",
          "type": "uint256"
        }
      ],
      "stateMutability": "view",
      "type": "function"
    },
    {
      "inputs": [],
      "name": "GIRLMOON",
      "outputs": [
        {
          "internalType": "uint256",
          "name": "",
          "type": "uint256"
        }
      ],
      "stateMutability": "view",
      "type": "function"
    },
    {
      "inputs": [],
      "name": "KRISHNA",
      "outputs": [
        {
          "internalType": "uint256",
          "name": "",
          "type": "uint256"
        }
      ],
      "stateMutability": "view",
      "type": "function"
    },
    {
      "inputs": [],
      "name": "MORNINGSKY",
      "outputs": [
        {
          "internalType": "uint256",
          "name": "",
          "type": "uint256"
        }
      ],
      "stateMutability": "view",
      "type": "function"
    },
    {
      "inputs": [],
      "name": "NEZUKO",
      "outputs": [
        {
          "internalType": "uint256",
          "name": "",
          "type": "uint256"
        }
      ],
      "stateMutability": "view",
      "type": "function"
    },
    {
      "inputs": [],
      "name": "PEACOCK",
      "outputs": [
        {
          "internalType": "uint256",
          "name": "",
          "type": "uint256"
        }
      ],
      "stateMutability": "view",
      "type": "function"
    },
    {
      "inputs": [
        {
          "internalType": "address",
          "name": "account",
          "type": "address"
        },
        {
          "internalType": "uint256",
          "name": "id",
          "type": "uint256"
        }
      ],
      "name": "balanceOf",
      "outputs": [
        {
          "internalType": "uint256",
          "name": "",
          "type": "uint256"
        }
      ],
      "stateMutability": "view",
      "type": "function"
    },
    {
      "inputs": [
        {
          "internalType": "address[]",
          "name": "accounts",
          "type": "address[]"
        },
        {
          "internalType": "uint256[]",
          "name": "ids",
          "type": "uint256[]"
        }
      ],
      "name": "balanceOfBatch",
      "outputs": [
        {
          "internalType": "uint256[]",
          "name": "",
          "type": "uint256[]"
        }
      ],
      "stateMutability": "view",
      "type": "function"
    },
    {
      "inputs": [
        {
          "internalType": "address",
          "name": "account",
          "type": "address"
        },
        {
          "internalType": "uint256",
          "name": "id",
          "type": "uint256"
        },
        {
          "internalType": "uint256",
          "name": "amount",
          "type": "uint256"
        }
      ],
      "name": "burn",
      "outputs": [],
      "stateMutability": "nonpayable",
      "type": "function"
    },
    {
      "inputs": [
        {
          "internalType": "address",
          "name": "account",
          "type": "address"
        },
        {
          "internalType": "address",
          "name": "operator",
          "type": "address"
        }
      ],
      "name": "isApprovedForAll",
      "outputs": [
        {
          "internalType": "bool",
          "name": "",
          "type": "bool"
        }
      ],
      "stateMutability": "view",
      "type": "function"
    },
    {
      "inputs": [
        {
          "internalType": "address",
          "name": "account",
          "type": "address"
        },
        {
          "internalType": "uint256",
          "name": "id",
          "type": "uint256"
        },
        {
          "internalType": "uint256",
          "name": "amount",
          "type": "uint256"
        }
      ],
      "name": "mint",
      "outputs": [],
      "stateMutability": "nonpayable",
      "type": "function"
    },
    {
      "inputs": [
        {
          "internalType": "address",
          "name": "to",
          "type": "address"
        },
        {
          "internalType": "uint256[]",
          "name": "ids",
          "type": "uint256[]"
        },
        {
          "internalType": "uint256[]",
          "name": "amounts",
          "type": "uint256[]"
        },
        {
          "internalType": "bytes",
          "name": "data",
          "type": "bytes"
        }
      ],
      "name": "mintBatch",
      "outputs": [],
      "stateMutability": "nonpayable",
      "type": "function"
    },
    {
      "inputs": [],
      "name": "owner",
      "outputs": [
        {
          "internalType": "address",
          "name": "",
          "type": "address"
        }
      ],
      "stateMutability": "view",
      "type": "function"
    },
    {
      "inputs": [],
      "name": "renounceOwnership",
      "outputs": [],
      "stateMutability": "nonpayable",
      "type": "function"
    },
    {
      "inputs": [
        {
          "internalType": "address",
          "name": "from",
          "type": "address"
        },
        {
          "internalType": "address",
          "name": "to",
          "type": "address"
        },
        {
          "internalType": "uint256[]",
          "name": "ids",
          "type": "uint256[]"
        },
        {
          "internalType": "uint256[]",
          "name": "amounts",
          "type": "uint256[]"
        },
        {
          "internalType": "bytes",
          "name": "data",
          "type": "bytes"
        }
      ],
      "name": "safeBatchTransferFrom",
      "outputs": [],
      "stateMutability": "nonpayable",
      "type": "function"
    },
    {
      "inputs": [
        {
          "internalType": "address",
          "name": "from",
          "type": "address"
        },
        {
          "internalType": "address",
          "name": "to",
          "type": "address"
        },
        {
          "internalType": "uint256",
          "name": "id",
          "type": "uint256"
        },
        {
          "internalType": "uint256",
          "name": "amount",
          "type": "uint256"
        },
        {
          "internalType": "bytes",
          "name": "data",
          "type": "bytes"
        }
      ],
      "name": "safeTransferFrom",
      "outputs": [],
      "stateMutability": "nonpayable",
      "type": "function"
    },
    {
      "inputs": [
        {
          "internalType": "address",
          "name": "operator",
          "type": "address"
        },
        {
          "internalType": "bool",
          "name": "approved",
          "type": "bool"
        }
      ],
      "name": "setApprovalForAll",
      "outputs": [],
      "stateMutability": "nonpayable",
      "type": "function"
    },
    {
      "inputs": [
        {
          "internalType": "bytes4",
          "name": "interfaceId",
          "type": "bytes4"
        }
      ],
      "name": "supportsInterface",
      "outputs": [
        {
          "internalType": "bool",
          "name": "",
          "type": "bool"
        }
      ],
      "stateMutability": "view",
      "type": "function"
    },
    {
      "inputs": [],
      "name": "testcase1",
      "outputs": [
        {
          "internalType": "string",
          "name": "",
          "type": "string"
        }
      ],
      "stateMutability": "view",
      "type": "function"
    },
    {
      "inputs": [
        {
          "internalType": "address",
          "name": "newOwner",
          "type": "address"
        }
      ],
      "name": "transferOwnership",
      "outputs": [],
      "stateMutability": "nonpayable",
      "type": "function"
    },
    {
      "inputs": [
        {
          "internalType": "uint256",
          "name": "_tokenId",
          "type": "uint256"
        }
      ],
      "name": "uri",
      "outputs": [
        {
          "internalType": "string",
          "name": "",
          "type": "string"
        }
      ],
      "stateMutability": "view",
      "type": "function"
    }
  ],
  "bytecode": "0x60806040526040518060400160405280600481526020017f4865797900000000000000000000000000000000000000000000000000000000815250600490816200004a919062000a33565b503480156200005857600080fd5b50604051806080016040528060438152602001620049af6043913962000084816200024260201b60201c565b50620000a5620000996200025760201b60201c565b6200025f60201b60201c565b620000ca336000600a604051806020016040528060008152506200032560201b60201c565b620000ef33600160c8604051806020016040528060008152506200032560201b60201c565b62000114336002601e604051806020016040528060008152506200032560201b60201c565b620001393360036064604051806020016040528060008152506200032560201b60201c565b6200015e336004600a604051806020016040528060008152506200032560201b60201c565b620001833360056064604051806020016040528060008152506200032560201b60201c565b620001a8336006600a604051806020016040528060008152506200032560201b60201c565b620001cd336007601e604051806020016040528060008152506200032560201b60201c565b620001f233600860c8604051806020016040528060008152506200032560201b60201c565b620002173360096064604051806020016040528060008152506200032560201b60201c565b6200023c33600a6064604051806020016040528060008152506200032560201b60201c565b62001113565b806002908162000253919062000a33565b5050565b600033905090565b6000600360009054906101000a900473ffffffffffffffffffffffffffffffffffffffff16905081600360006101000a81548173ffffffffffffffffffffffffffffffffffffffff021916908373ffffffffffffffffffffffffffffffffffffffff1602179055508173ffffffffffffffffffffffffffffffffffffffff168173ffffffffffffffffffffffffffffffffffffffff167f8be0079c531659141344cd1fd0a4f28419497f9722a3daafe3b4186f6b6457e060405160405180910390a35050565b600073ffffffffffffffffffffffffffffffffffffffff168473ffffffffffffffffffffffffffffffffffffffff160362000397576040517f08c379a00000000000000000000000000000000000000000000000000000000081526004016200038e9062000ba1565b60405180910390fd5b6000620003a96200025760201b60201c565b90506000620003be856200050c60201b60201c565b90506000620003d3856200050c60201b60201c565b9050620003ec836000898585896200058d60201b60201c565b8460008088815260200190815260200160002060008973ffffffffffffffffffffffffffffffffffffffff1673ffffffffffffffffffffffffffffffffffffffff16815260200190815260200160002060008282546200044d919062000bf2565b925050819055508673ffffffffffffffffffffffffffffffffffffffff16600073ffffffffffffffffffffffffffffffffffffffff168473ffffffffffffffffffffffffffffffffffffffff167fc3d58168c5ae7397731d063d5bbf3d657854427343f4c083240f7aacaa2d0f628989604051620004cd92919062000c3e565b60405180910390a4620004ec836000898585896200059560201b60201c565b62000503836000898989896200059d60201b60201c565b50505050505050565b60606000600167ffffffffffffffff8111156200052e576200052d620007c4565b5b6040519080825280602002602001820160405280156200055d5781602001602082028036833780820191505090505b509050828160008151811062000578576200057762000c6b565b5b60200260200101818152505080915050919050565b505050505050565b505050505050565b620005c98473ffffffffffffffffffffffffffffffffffffffff166200079660201b62000bc61760201c565b156200078e578373ffffffffffffffffffffffffffffffffffffffff1663f23a6e6187878686866040518663ffffffff1660e01b81526004016200061295949392919062000d79565b6020604051808303816000875af19250505080156200065157506040513d601f19601f820116820180604052508101906200064e919062000e49565b60015b62000702576200066062000e88565b806308c379a003620006c357506200067762000ee3565b80620006845750620006c5565b806040517f08c379a0000000000000000000000000000000000000000000000000000000008152600401620006ba919062000fbf565b60405180910390fd5b505b6040517f08c379a0000000000000000000000000000000000000000000000000000000008152600401620006f99062001059565b60405180910390fd5b63f23a6e6160e01b7bffffffffffffffffffffffffffffffffffffffffffffffffffffffff1916817bffffffffffffffffffffffffffffffffffffffffffffffffffffffff1916146200078c576040517f08c379a00000000000000000000000000000000000000000000000000000000081526004016200078390620010f1565b60405180910390fd5b505b505050505050565b6000808273ffffffffffffffffffffffffffffffffffffffff163b119050919050565b600081519050919050565b7f4e487b7100000000000000000000000000000000000000000000000000000000600052604160045260246000fd5b7f4e487b7100000000000000000000000000000000000000000000000000000000600052602260045260246000fd5b600060028204905060018216806200083b57607f821691505b602082108103620008515762000850620007f3565b5b50919050565b60008190508160005260206000209050919050565b60006020601f8301049050919050565b600082821b905092915050565b600060088302620008bb7fffffffffffffffffffffffffffffffffffffffffffffffffffffffffffffffff826200087c565b620008c786836200087c565b95508019841693508086168417925050509392505050565b6000819050919050565b6000819050919050565b6000620009146200090e6200090884620008df565b620008e9565b620008df565b9050919050565b6000819050919050565b6200093083620008f3565b620009486200093f826200091b565b84845462000889565b825550505050565b600090565b6200095f62000950565b6200096c81848462000925565b505050565b5b8181101562000994576200098860008262000955565b60018101905062000972565b5050565b601f821115620009e357620009ad8162000857565b620009b8846200086c565b81016020851015620009c8578190505b620009e0620009d7856200086c565b83018262000971565b50505b505050565b600082821c905092915050565b600062000a0860001984600802620009e8565b1980831691505092915050565b600062000a238383620009f5565b9150826002028217905092915050565b62000a3e82620007b9565b67ffffffffffffffff81111562000a5a5762000a59620007c4565b5b62000a66825462000822565b62000a7382828562000998565b600060209050601f83116001811462000aab576000841562000a96578287015190505b62000aa2858262000a15565b86555062000b12565b601f19841662000abb8662000857565b60005b8281101562000ae55784890151825560018201915060208501945060208101905062000abe565b8683101562000b05578489015162000b01601f891682620009f5565b8355505b6001600288020188555050505b505050505050565b600082825260208201905092915050565b7f455243313135353a206d696e7420746f20746865207a65726f2061646472657360008201527f7300000000000000000000000000000000000000000000000000000000000000602082015250565b600062000b8960218362000b1a565b915062000b968262000b2b565b604082019050919050565b6000602082019050818103600083015262000bbc8162000b7a565b9050919050565b7f4e487b7100000000000000000000000000000000000000000000000000000000600052601160045260246000fd5b600062000bff82620008df565b915062000c0c83620008df565b925082820190508082111562000c275762000c2662000bc3565b5b92915050565b62000c3881620008df565b82525050565b600060408201905062000c55600083018562000c2d565b62000c64602083018462000c2d565b9392505050565b7f4e487b7100000000000000000000000000000000000000000000000000000000600052603260045260246000fd5b600073ffffffffffffffffffffffffffffffffffffffff82169050919050565b600062000cc78262000c9a565b9050919050565b62000cd98162000cba565b82525050565b600081519050919050565b600082825260208201905092915050565b60005b8381101562000d1b57808201518184015260208101905062000cfe565b60008484015250505050565b6000601f19601f8301169050919050565b600062000d458262000cdf565b62000d51818562000cea565b935062000d6381856020860162000cfb565b62000d6e8162000d27565b840191505092915050565b600060a08201905062000d90600083018862000cce565b62000d9f602083018762000cce565b62000dae604083018662000c2d565b62000dbd606083018562000c2d565b818103608083015262000dd1818462000d38565b90509695505050505050565b6000604051905090565b600080fd5b60007fffffffff0000000000000000000000000000000000000000000000000000000082169050919050565b62000e238162000dec565b811462000e2f57600080fd5b50565b60008151905062000e438162000e18565b92915050565b60006020828403121562000e625762000e6162000de7565b5b600062000e728482850162000e32565b91505092915050565b60008160e01c9050919050565b600060033d111562000eaa5760046000803e62000ea760005162000e7b565b90505b90565b62000eb88262000d27565b810181811067ffffffffffffffff8211171562000eda5762000ed9620007c4565b5b80604052505050565b600060443d1062000f7b5762000ef862000ddd565b60043d036004823e80513d602482011167ffffffffffffffff8211171562000f2257505062000f7b565b808201805167ffffffffffffffff81111562000f42575050505062000f7b565b80602083010160043d03850181111562000f6157505050505062000f7b565b62000f728260200185018662000ead565b82955050505050505b90565b600062000f8b82620007b9565b62000f97818562000b1a565b935062000fa981856020860162000cfb565b62000fb48162000d27565b840191505092915050565b6000602082019050818103600083015262000fdb818462000f7e565b905092915050565b7f455243313135353a207472616e7366657220746f206e6f6e204552433131353560008201527f526563656976657220696d706c656d656e746572000000000000000000000000602082015250565b60006200104160348362000b1a565b91506200104e8262000fe3565b604082019050919050565b60006020820190508181036000830152620010748162001032565b9050919050565b7f455243313135353a204552433131353552656365697665722072656a6563746560008201527f6420746f6b656e73000000000000000000000000000000000000000000000000602082015250565b6000620010d960288362000b1a565b9150620010e6826200107b565b604082019050919050565b600060208201905081810360008301526200110c81620010ca565b9050919050565b61388c80620011236000396000f3fe608060405234801561001057600080fd5b506004361061018d5760003560e01c80638da5cb5b116100de578063d68fa22b11610097578063f242432a11610071578063f242432a14610464578063f2fde38b14610480578063f5298aca1461049c578063f55ca356146104b85761018d565b8063d68fa22b146103f8578063e985e9c514610416578063f1dbbdb0146104465761018d565b80638da5cb5b1461034657806398463b7e14610364578063a22cb46514610382578063b2660d631461039e578063b272e512146103bc578063b3244029146103da5761018d565b80632d65ba611161014b5780634e1273f4116101255780634e1273f4146102d05780634f888e8614610300578063715018a61461031e578063721b0a17146103285761018d565b80632d65ba61146102785780632eb2c2d61461029657806342d61013146102b25761018d565b8062fdd58e1461019257806301ffc9a7146101c25780630a63c438146101f25780630e89341c14610210578063156e29f6146102405780631f7fdffa1461025c575b600080fd5b6101ac60048036038101906101a79190612129565b6104d6565b6040516101b99190612178565b60405180910390f35b6101dc60048036038101906101d791906121eb565b61059e565b6040516101e99190612233565b60405180910390f35b6101fa610680565b6040516102079190612178565b60405180910390f35b61022a6004803603810190610225919061224e565b610685565b604051610237919061230b565b60405180910390f35b61025a6004803603810190610255919061232d565b6106b6565b005b6102766004803603810190610271919061257d565b6106de565b005b6102806106f8565b60405161028d9190612178565b60405180910390f35b6102b060048036038101906102ab9190612638565b6106fd565b005b6102ba61079e565b6040516102c79190612178565b60405180910390f35b6102ea60048036038101906102e591906127ca565b6107a3565b6040516102f79190612900565b60405180910390f35b6103086108bc565b6040516103159190612178565b60405180910390f35b6103266108c1565b005b6103306108d5565b60405161033d9190612178565b60405180910390f35b61034e6108da565b60405161035b9190612931565b60405180910390f35b61036c610904565b6040516103799190612178565b60405180910390f35b61039c60048036038101906103979190612978565b610909565b005b6103a661091f565b6040516103b39190612178565b60405180910390f35b6103c4610924565b6040516103d1919061230b565b60405180910390f35b6103e26109b2565b6040516103ef9190612178565b60405180910390f35b6104006109b7565b60405161040d9190612178565b60405180910390f35b610430600480360381019061042b91906129b8565b6109bc565b60405161043d9190612233565b60405180910390f35b61044e610a50565b60405161045b9190612178565b60405180910390f35b61047e600480360381019061047991906129f8565b610a55565b005b61049a60048036038101906104959190612a8f565b610af6565b005b6104b660048036038101906104b1919061232d565b610b79565b005b6104c0610bc1565b6040516104cd9190612178565b60405180910390f35b60008073ffffffffffffffffffffffffffffffffffffffff168373ffffffffffffffffffffffffffffffffffffffff1603610546576040517f08c379a000000000000000000000000000000000000000000000000000000000815260040161053d90612b2e565b60405180910390fd5b60008083815260200190815260200160002060008473ffffffffffffffffffffffffffffffffffffffff1673ffffffffffffffffffffffffffffffffffffffff16815260200190815260200160002054905092915050565b60007fd9b67a26000000000000000000000000000000000000000000000000000000007bffffffffffffffffffffffffffffffffffffffffffffffffffffffff1916827bffffffffffffffffffffffffffffffffffffffffffffffffffffffff1916148061066957507f0e89341c000000000000000000000000000000000000000000000000000000007bffffffffffffffffffffffffffffffffffffffffffffffffffffffff1916827bffffffffffffffffffffffffffffffffffffffffffffffffffffffff1916145b80610679575061067882610be9565b5b9050919050565b600681565b606061069082610c53565b6040516020016106a09190612c6e565b6040516020818303038152906040529050919050565b6106be610db3565b6106d983838360405180602001604052806000815250610e31565b505050565b6106e6610db3565b6106f284848484610fe1565b50505050565b600281565b61070561120d565b73ffffffffffffffffffffffffffffffffffffffff168573ffffffffffffffffffffffffffffffffffffffff16148061074b575061074a8561074561120d565b6109bc565b5b61078a576040517f08c379a000000000000000000000000000000000000000000000000000000000815260040161078190612d0d565b60405180910390fd5b6107978585858585611215565b5050505050565b600881565b606081518351146107e9576040517f08c379a00000000000000000000000000000000000000000000000000000000081526004016107e090612d9f565b60405180910390fd5b6000835167ffffffffffffffff81111561080657610805612385565b5b6040519080825280602002602001820160405280156108345781602001602082028036833780820191505090505b50905060005b84518110156108b15761088185828151811061085957610858612dbf565b5b602002602001015185838151811061087457610873612dbf565b5b60200260200101516104d6565b82828151811061089457610893612dbf565b5b602002602001018181525050806108aa90612e1d565b905061083a565b508091505092915050565b600481565b6108c9610db3565b6108d36000611536565b565b600081565b6000600360009054906101000a900473ffffffffffffffffffffffffffffffffffffffff16905090565b600981565b61091b61091461120d565b83836115fc565b5050565b600581565b6004805461093190612e94565b80601f016020809104026020016040519081016040528092919081815260200182805461095d90612e94565b80156109aa5780601f1061097f576101008083540402835291602001916109aa565b820191906000526020600020905b81548152906001019060200180831161098d57829003601f168201915b505050505081565b600181565b600781565b6000600160008473ffffffffffffffffffffffffffffffffffffffff1673ffffffffffffffffffffffffffffffffffffffff16815260200190815260200160002060008373ffffffffffffffffffffffffffffffffffffffff1673ffffffffffffffffffffffffffffffffffffffff16815260200190815260200160002060009054906101000a900460ff16905092915050565b600381565b610a5d61120d565b73ffffffffffffffffffffffffffffffffffffffff168573ffffffffffffffffffffffffffffffffffffffff161480610aa35750610aa285610a9d61120d565b6109bc565b5b610ae2576040517f08c379a0000000000000000000000000000000000000000000000000000000008152600401610ad990612d0d565b60405180910390fd5b610aef8585858585611768565b5050505050565b610afe610db3565b600073ffffffffffffffffffffffffffffffffffffffff168173ffffffffffffffffffffffffffffffffffffffff1603610b6d576040517f08c379a0000000000000000000000000000000000000000000000000000000008152600401610b6490612f37565b60405180910390fd5b610b7681611536565b50565b8273ffffffffffffffffffffffffffffffffffffffff163373ffffffffffffffffffffffffffffffffffffffff1614610bb157600080fd5b610bbc838383611a03565b505050565b600a81565b6000808273ffffffffffffffffffffffffffffffffffffffff163b119050919050565b60007f01ffc9a7000000000000000000000000000000000000000000000000000000007bffffffffffffffffffffffffffffffffffffffffffffffffffffffff1916827bffffffffffffffffffffffffffffffffffffffffffffffffffffffff1916149050919050565b606060008203610c9a576040518060400160405280600181526020017f30000000000000000000000000000000000000000000000000000000000000008152509050610dae565b600082905060005b60008214610ccc578080610cb590612e1d565b915050600a82610cc59190612f86565b9150610ca2565b60008167ffffffffffffffff811115610ce857610ce7612385565b5b6040519080825280601f01601f191660200182016040528015610d1a5781602001600182028036833780820191505090505b5090505b60008514610da757600182610d339190612fb7565b9150600a85610d429190612feb565b6030610d4e919061301c565b60f81b818381518110610d6457610d63612dbf565b5b60200101907effffffffffffffffffffffffffffffffffffffffffffffffffffffffffffff1916908160001a905350600a85610da09190612f86565b9450610d1e565b8093505050505b919050565b610dbb61120d565b73ffffffffffffffffffffffffffffffffffffffff16610dd96108da565b73ffffffffffffffffffffffffffffffffffffffff1614610e2f576040517f08c379a0000000000000000000000000000000000000000000000000000000008152600401610e269061309c565b60405180910390fd5b565b600073ffffffffffffffffffffffffffffffffffffffff168473ffffffffffffffffffffffffffffffffffffffff1603610ea0576040517f08c379a0000000000000000000000000000000000000000000000000000000008152600401610e979061312e565b60405180910390fd5b6000610eaa61120d565b90506000610eb785611c49565b90506000610ec485611c49565b9050610ed583600089858589611cc3565b8460008088815260200190815260200160002060008973ffffffffffffffffffffffffffffffffffffffff1673ffffffffffffffffffffffffffffffffffffffff1681526020019081526020016000206000828254610f34919061301c565b925050819055508673ffffffffffffffffffffffffffffffffffffffff16600073ffffffffffffffffffffffffffffffffffffffff168473ffffffffffffffffffffffffffffffffffffffff167fc3d58168c5ae7397731d063d5bbf3d657854427343f4c083240f7aacaa2d0f628989604051610fb292919061314e565b60405180910390a4610fc983600089858589611ccb565b610fd883600089898989611cd3565b50505050505050565b600073ffffffffffffffffffffffffffffffffffffffff168473ffffffffffffffffffffffffffffffffffffffff1603611050576040517f08c379a00000000000000000000000000000000000000000000000000000000081526004016110479061312e565b60405180910390fd5b8151835114611094576040517f08c379a000000000000000000000000000000000000000000000000000000000815260040161108b906131e9565b60405180910390fd5b600061109e61120d565b90506110af81600087878787611cc3565b60005b8451811015611168578381815181106110ce576110cd612dbf565b5b60200260200101516000808784815181106110ec576110eb612dbf565b5b6020026020010151815260200190815260200160002060008873ffffffffffffffffffffffffffffffffffffffff1673ffffffffffffffffffffffffffffffffffffffff168152602001908152602001600020600082825461114e919061301c565b92505081905550808061116090612e1d565b9150506110b2565b508473ffffffffffffffffffffffffffffffffffffffff16600073ffffffffffffffffffffffffffffffffffffffff168273ffffffffffffffffffffffffffffffffffffffff167f4a39dc06d4c0dbc64b70af90fd698a233a518aa5d07e595d983b8c0526c8f7fb87876040516111e0929190613209565b60405180910390a46111f781600087878787611ccb565b61120681600087878787611eaa565b5050505050565b600033905090565b8151835114611259576040517f08c379a0000000000000000000000000000000000000000000000000000000008152600401611250906131e9565b60405180910390fd5b600073ffffffffffffffffffffffffffffffffffffffff168473ffffffffffffffffffffffffffffffffffffffff16036112c8576040517f08c379a00000000000000000000000000000000000000000000000000000000081526004016112bf906132b2565b60405180910390fd5b60006112d261120d565b90506112e2818787878787611cc3565b60005b845181101561149357600085828151811061130357611302612dbf565b5b60200260200101519050600085838151811061132257611321612dbf565b5b60200260200101519050600080600084815260200190815260200160002060008b73ffffffffffffffffffffffffffffffffffffffff1673ffffffffffffffffffffffffffffffffffffffff168152602001908152602001600020549050818110156113c3576040517f08c379a00000000000000000000000000000000000000000000000000000000081526004016113ba90613344565b60405180910390fd5b81810360008085815260200190815260200160002060008c73ffffffffffffffffffffffffffffffffffffffff1673ffffffffffffffffffffffffffffffffffffffff168152602001908152602001600020819055508160008085815260200190815260200160002060008b73ffffffffffffffffffffffffffffffffffffffff1673ffffffffffffffffffffffffffffffffffffffff1681526020019081526020016000206000828254611478919061301c565b925050819055505050508061148c90612e1d565b90506112e5565b508473ffffffffffffffffffffffffffffffffffffffff168673ffffffffffffffffffffffffffffffffffffffff168273ffffffffffffffffffffffffffffffffffffffff167f4a39dc06d4c0dbc64b70af90fd698a233a518aa5d07e595d983b8c0526c8f7fb878760405161150a929190613209565b60405180910390a4611520818787878787611ccb565b61152e818787878787611eaa565b505050505050565b6000600360009054906101000a900473ffffffffffffffffffffffffffffffffffffffff16905081600360006101000a81548173ffffffffffffffffffffffffffffffffffffffff021916908373ffffffffffffffffffffffffffffffffffffffff1602179055508173ffffffffffffffffffffffffffffffffffffffff168173ffffffffffffffffffffffffffffffffffffffff167f8be0079c531659141344cd1fd0a4f28419497f9722a3daafe3b4186f6b6457e060405160405180910390a35050565b8173ffffffffffffffffffffffffffffffffffffffff168373ffffffffffffffffffffffffffffffffffffffff160361166a576040517f08c379a0000000000000000000000000000000000000000000000000000000008152600401611661906133d6565b60405180910390fd5b80600160008573ffffffffffffffffffffffffffffffffffffffff1673ffffffffffffffffffffffffffffffffffffffff16815260200190815260200160002060008473ffffffffffffffffffffffffffffffffffffffff1673ffffffffffffffffffffffffffffffffffffffff16815260200190815260200160002060006101000a81548160ff0219169083151502179055508173ffffffffffffffffffffffffffffffffffffffff168373ffffffffffffffffffffffffffffffffffffffff167f17307eab39ab6107e8899845ad3d59bd9653f200f220920489ca2b5937696c318360405161175b9190612233565b60405180910390a3505050565b600073ffffffffffffffffffffffffffffffffffffffff168473ffffffffffffffffffffffffffffffffffffffff16036117d7576040517f08c379a00000000000000000000000000000000000000000000000000000000081526004016117ce906132b2565b60405180910390fd5b60006117e161120d565b905060006117ee85611c49565b905060006117fb85611c49565b905061180b838989858589611cc3565b600080600088815260200190815260200160002060008a73ffffffffffffffffffffffffffffffffffffffff1673ffffffffffffffffffffffffffffffffffffffff168152602001908152602001600020549050858110156118a2576040517f08c379a000000000000000000000000000000000000000000000000000000000815260040161189990613344565b60405180910390fd5b85810360008089815260200190815260200160002060008b73ffffffffffffffffffffffffffffffffffffffff1673ffffffffffffffffffffffffffffffffffffffff168152602001908152602001600020819055508560008089815260200190815260200160002060008a73ffffffffffffffffffffffffffffffffffffffff1673ffffffffffffffffffffffffffffffffffffffff1681526020019081526020016000206000828254611957919061301c565b925050819055508773ffffffffffffffffffffffffffffffffffffffff168973ffffffffffffffffffffffffffffffffffffffff168573ffffffffffffffffffffffffffffffffffffffff167fc3d58168c5ae7397731d063d5bbf3d657854427343f4c083240f7aacaa2d0f628a8a6040516119d492919061314e565b60405180910390a46119ea848a8a86868a611ccb565b6119f8848a8a8a8a8a611cd3565b505050505050505050565b600073ffffffffffffffffffffffffffffffffffffffff168373ffffffffffffffffffffffffffffffffffffffff1603611a72576040517f08c379a0000000000000000000000000000000000000000000000000000000008152600401611a6990613468565b60405180910390fd5b6000611a7c61120d565b90506000611a8984611c49565b90506000611a9684611c49565b9050611ab683876000858560405180602001604052806000815250611cc3565b600080600087815260200190815260200160002060008873ffffffffffffffffffffffffffffffffffffffff1673ffffffffffffffffffffffffffffffffffffffff16815260200190815260200160002054905084811015611b4d576040517f08c379a0000000000000000000000000000000000000000000000000000000008152600401611b44906134fa565b60405180910390fd5b84810360008088815260200190815260200160002060008973ffffffffffffffffffffffffffffffffffffffff1673ffffffffffffffffffffffffffffffffffffffff16815260200190815260200160002081905550600073ffffffffffffffffffffffffffffffffffffffff168773ffffffffffffffffffffffffffffffffffffffff168573ffffffffffffffffffffffffffffffffffffffff167fc3d58168c5ae7397731d063d5bbf3d657854427343f4c083240f7aacaa2d0f628989604051611c1a92919061314e565b60405180910390a4611c4084886000868660405180602001604052806000815250611ccb565b50505050505050565b60606000600167ffffffffffffffff811115611c6857611c67612385565b5b604051908082528060200260200182016040528015611c965781602001602082028036833780820191505090505b5090508281600081518110611cae57611cad612dbf565b5b60200260200101818152505080915050919050565b505050505050565b505050505050565b611cf28473ffffffffffffffffffffffffffffffffffffffff16610bc6565b15611ea2578373ffffffffffffffffffffffffffffffffffffffff1663f23a6e6187878686866040518663ffffffff1660e01b8152600401611d3895949392919061356f565b6020604051808303816000875af1925050508015611d7457506040513d601f19601f82011682018060405250810190611d7191906135de565b60015b611e1957611d80613618565b806308c379a003611ddc5750611d9461363a565b80611d9f5750611dde565b806040517f08c379a0000000000000000000000000000000000000000000000000000000008152600401611dd3919061230b565b60405180910390fd5b505b6040517f08c379a0000000000000000000000000000000000000000000000000000000008152600401611e109061373c565b60405180910390fd5b63f23a6e6160e01b7bffffffffffffffffffffffffffffffffffffffffffffffffffffffff1916817bffffffffffffffffffffffffffffffffffffffffffffffffffffffff191614611ea0576040517f08c379a0000000000000000000000000000000000000000000000000000000008152600401611e97906137ce565b60405180910390fd5b505b505050505050565b611ec98473ffffffffffffffffffffffffffffffffffffffff16610bc6565b15612079578373ffffffffffffffffffffffffffffffffffffffff1663bc197c8187878686866040518663ffffffff1660e01b8152600401611f0f9594939291906137ee565b6020604051808303816000875af1925050508015611f4b57506040513d601f19601f82011682018060405250810190611f4891906135de565b60015b611ff057611f57613618565b806308c379a003611fb35750611f6b61363a565b80611f765750611fb5565b806040517f08c379a0000000000000000000000000000000000000000000000000000000008152600401611faa919061230b565b60405180910390fd5b505b6040517f08c379a0000000000000000000000000000000000000000000000000000000008152600401611fe79061373c565b60405180910390fd5b63bc197c8160e01b7bffffffffffffffffffffffffffffffffffffffffffffffffffffffff1916817bffffffffffffffffffffffffffffffffffffffffffffffffffffffff191614612077576040517f08c379a000000000000000000000000000000000000000000000000000000000815260040161206e906137ce565b60405180910390fd5b505b505050505050565b6000604051905090565b600080fd5b600080fd5b600073ffffffffffffffffffffffffffffffffffffffff82169050919050565b60006120c082612095565b9050919050565b6120d0816120b5565b81146120db57600080fd5b50565b6000813590506120ed816120c7565b92915050565b6000819050919050565b612106816120f3565b811461211157600080fd5b50565b600081359050612123816120fd565b92915050565b600080604083850312156121405761213f61208b565b5b600061214e858286016120de565b925050602061215f85828601612114565b9150509250929050565b612172816120f3565b82525050565b600060208201905061218d6000830184612169565b92915050565b60007fffffffff0000000000000000000000000000000000000000000000000000000082169050919050565b6121c881612193565b81146121d357600080fd5b50565b6000813590506121e5816121bf565b92915050565b6000602082840312156122015761220061208b565b5b600061220f848285016121d6565b91505092915050565b60008115159050919050565b61222d81612218565b82525050565b60006020820190506122486000830184612224565b92915050565b6000602082840312156122645761226361208b565b5b600061227284828501612114565b91505092915050565b600081519050919050565b600082825260208201905092915050565b60005b838110156122b557808201518184015260208101905061229a565b60008484015250505050565b6000601f19601f8301169050919050565b60006122dd8261227b565b6122e78185612286565b93506122f7818560208601612297565b612300816122c1565b840191505092915050565b6000602082019050818103600083015261232581846122d2565b905092915050565b6000806000606084860312156123465761234561208b565b5b6000612354868287016120de565b935050602061236586828701612114565b925050604061237686828701612114565b9150509250925092565b600080fd5b7f4e487b7100000000000000000000000000000000000000000000000000000000600052604160045260246000fd5b6123bd826122c1565b810181811067ffffffffffffffff821117156123dc576123db612385565b5b80604052505050565b60006123ef612081565b90506123fb82826123b4565b919050565b600067ffffffffffffffff82111561241b5761241a612385565b5b602082029050602081019050919050565b600080fd5b600061244461243f84612400565b6123e5565b905080838252602082019050602084028301858111156124675761246661242c565b5b835b81811015612490578061247c8882612114565b845260208401935050602081019050612469565b5050509392505050565b600082601f8301126124af576124ae612380565b5b81356124bf848260208601612431565b91505092915050565b600080fd5b600067ffffffffffffffff8211156124e8576124e7612385565b5b6124f1826122c1565b9050602081019050919050565b82818337600083830152505050565b600061252061251b846124cd565b6123e5565b90508281526020810184848401111561253c5761253b6124c8565b5b6125478482856124fe565b509392505050565b600082601f83011261256457612563612380565b5b813561257484826020860161250d565b91505092915050565b600080600080608085870312156125975761259661208b565b5b60006125a5878288016120de565b945050602085013567ffffffffffffffff8111156125c6576125c5612090565b5b6125d28782880161249a565b935050604085013567ffffffffffffffff8111156125f3576125f2612090565b5b6125ff8782880161249a565b925050606085013567ffffffffffffffff8111156126205761261f612090565b5b61262c8782880161254f565b91505092959194509250565b600080600080600060a086880312156126545761265361208b565b5b6000612662888289016120de565b9550506020612673888289016120de565b945050604086013567ffffffffffffffff81111561269457612693612090565b5b6126a08882890161249a565b935050606086013567ffffffffffffffff8111156126c1576126c0612090565b5b6126cd8882890161249a565b925050608086013567ffffffffffffffff8111156126ee576126ed612090565b5b6126fa8882890161254f565b9150509295509295909350565b600067ffffffffffffffff82111561272257612721612385565b5b602082029050602081019050919050565b600061274661274184612707565b6123e5565b905080838252602082019050602084028301858111156127695761276861242c565b5b835b81811015612792578061277e88826120de565b84526020840193505060208101905061276b565b5050509392505050565b600082601f8301126127b1576127b0612380565b5b81356127c1848260208601612733565b91505092915050565b600080604083850312156127e1576127e061208b565b5b600083013567ffffffffffffffff8111156127ff576127fe612090565b5b61280b8582860161279c565b925050602083013567ffffffffffffffff81111561282c5761282b612090565b5b6128388582860161249a565b9150509250929050565b600081519050919050565b600082825260208201905092915050565b6000819050602082019050919050565b612877816120f3565b82525050565b6000612889838361286e565b60208301905092915050565b6000602082019050919050565b60006128ad82612842565b6128b7818561284d565b93506128c28361285e565b8060005b838110156128f35781516128da888261287d565b97506128e583612895565b9250506001810190506128c6565b5085935050505092915050565b6000602082019050818103600083015261291a81846128a2565b905092915050565b61292b816120b5565b82525050565b60006020820190506129466000830184612922565b92915050565b61295581612218565b811461296057600080fd5b50565b6000813590506129728161294c565b92915050565b6000806040838503121561298f5761298e61208b565b5b600061299d858286016120de565b92505060206129ae85828601612963565b9150509250929050565b600080604083850312156129cf576129ce61208b565b5b60006129dd858286016120de565b92505060206129ee858286016120de565b9150509250929050565b600080600080600060a08688031215612a1457612a1361208b565b5b6000612a22888289016120de565b9550506020612a33888289016120de565b9450506040612a4488828901612114565b9350506060612a5588828901612114565b925050608086013567ffffffffffffffff811115612a7657612a75612090565b5b612a828882890161254f565b9150509295509295909350565b600060208284031215612aa557612aa461208b565b5b6000612ab3848285016120de565b91505092915050565b7f455243313135353a2061646472657373207a65726f206973206e6f742061207660008201527f616c6964206f776e657200000000000000000000000000000000000000000000602082015250565b6000612b18602a83612286565b9150612b2382612abc565b604082019050919050565b60006020820190508181036000830152612b4781612b0b565b9050919050565b600081905092915050565b7f68747470733a2f2f697066732e696f2f697066732f516d5759556652796f434760008201527f5a7447394b656e3937565352725438473959557334786275664a776f444e6d6160208201527f5366782f00000000000000000000000000000000000000000000000000000000604082015250565b6000612bdb604483612b4e565b9150612be682612b59565b604482019050919050565b6000612bfc8261227b565b612c068185612b4e565b9350612c16818560208601612297565b80840191505092915050565b7f2e6a736f6e000000000000000000000000000000000000000000000000000000600082015250565b6000612c58600583612b4e565b9150612c6382612c22565b600582019050919050565b6000612c7982612bce565b9150612c858284612bf1565b9150612c9082612c4b565b915081905092915050565b7f455243313135353a2063616c6c6572206973206e6f7420746f6b656e206f776e60008201527f6572206e6f7220617070726f7665640000000000000000000000000000000000602082015250565b6000612cf7602f83612286565b9150612d0282612c9b565b604082019050919050565b60006020820190508181036000830152612d2681612cea565b9050919050565b7f455243313135353a206163636f756e747320616e6420696473206c656e67746860008201527f206d69736d617463680000000000000000000000000000000000000000000000602082015250565b6000612d89602983612286565b9150612d9482612d2d565b604082019050919050565b60006020820190508181036000830152612db881612d7c565b9050919050565b7f4e487b7100000000000000000000000000000000000000000000000000000000600052603260045260246000fd5b7f4e487b7100000000000000000000000000000000000000000000000000000000600052601160045260246000fd5b6000612e28826120f3565b91507fffffffffffffffffffffffffffffffffffffffffffffffffffffffffffffffff8203612e5a57612e59612dee565b5b600182019050919050565b7f4e487b7100000000000000000000000000000000000000000000000000000000600052602260045260246000fd5b60006002820490506001821680612eac57607f821691505b602082108103612ebf57612ebe612e65565b5b50919050565b7f4f776e61626c653a206e6577206f776e657220697320746865207a65726f206160008201527f6464726573730000000000000000000000000000000000000000000000000000602082015250565b6000612f21602683612286565b9150612f2c82612ec5565b604082019050919050565b60006020820190508181036000830152612f5081612f14565b9050919050565b7f4e487b7100000000000000000000000000000000000000000000000000000000600052601260045260246000fd5b6000612f91826120f3565b9150612f9c836120f3565b925082612fac57612fab612f57565b5b828204905092915050565b6000612fc2826120f3565b9150612fcd836120f3565b9250828203905081811115612fe557612fe4612dee565b5b92915050565b6000612ff6826120f3565b9150613001836120f3565b92508261301157613010612f57565b5b828206905092915050565b6000613027826120f3565b9150613032836120f3565b925082820190508082111561304a57613049612dee565b5b92915050565b7f4f776e61626c653a2063616c6c6572206973206e6f7420746865206f776e6572600082015250565b6000613086602083612286565b915061309182613050565b602082019050919050565b600060208201905081810360008301526130b581613079565b9050919050565b7f455243313135353a206d696e7420746f20746865207a65726f2061646472657360008201527f7300000000000000000000000000000000000000000000000000000000000000602082015250565b6000613118602183612286565b9150613123826130bc565b604082019050919050565b600060208201905081810360008301526131478161310b565b9050919050565b60006040820190506131636000830185612169565b6131706020830184612169565b9392505050565b7f455243313135353a2069647320616e6420616d6f756e7473206c656e6774682060008201527f6d69736d61746368000000000000000000000000000000000000000000000000602082015250565b60006131d3602883612286565b91506131de82613177565b604082019050919050565b60006020820190508181036000830152613202816131c6565b9050919050565b6000604082019050818103600083015261322381856128a2565b9050818103602083015261323781846128a2565b90509392505050565b7f455243313135353a207472616e7366657220746f20746865207a65726f20616460008201527f6472657373000000000000000000000000000000000000000000000000000000602082015250565b600061329c602583612286565b91506132a782613240565b604082019050919050565b600060208201905081810360008301526132cb8161328f565b9050919050565b7f455243313135353a20696e73756666696369656e742062616c616e636520666f60008201527f72207472616e7366657200000000000000000000000000000000000000000000602082015250565b600061332e602a83612286565b9150613339826132d2565b604082019050919050565b6000602082019050818103600083015261335d81613321565b9050919050565b7f455243313135353a2073657474696e6720617070726f76616c2073746174757360008201527f20666f722073656c660000000000000000000000000000000000000000000000602082015250565b60006133c0602983612286565b91506133cb82613364565b604082019050919050565b600060208201905081810360008301526133ef816133b3565b9050919050565b7f455243313135353a206275726e2066726f6d20746865207a65726f206164647260008201527f6573730000000000000000000000000000000000000000000000000000000000602082015250565b6000613452602383612286565b915061345d826133f6565b604082019050919050565b6000602082019050818103600083015261348181613445565b9050919050565b7f455243313135353a206275726e20616d6f756e7420657863656564732062616c60008201527f616e636500000000000000000000000000000000000000000000000000000000602082015250565b60006134e4602483612286565b91506134ef82613488565b604082019050919050565b60006020820190508181036000830152613513816134d7565b9050919050565b600081519050919050565b600082825260208201905092915050565b60006135418261351a565b61354b8185613525565b935061355b818560208601612297565b613564816122c1565b840191505092915050565b600060a0820190506135846000830188612922565b6135916020830187612922565b61359e6040830186612169565b6135ab6060830185612169565b81810360808301526135bd8184613536565b90509695505050505050565b6000815190506135d8816121bf565b92915050565b6000602082840312156135f4576135f361208b565b5b6000613602848285016135c9565b91505092915050565b60008160e01c9050919050565b600060033d11156136375760046000803e61363460005161360b565b90505b90565b600060443d106136c75761364c612081565b60043d036004823e80513d602482011167ffffffffffffffff821117156136745750506136c7565b808201805167ffffffffffffffff81111561369257505050506136c7565b80602083010160043d0385018111156136af5750505050506136c7565b6136be826020018501866123b4565b82955050505050505b90565b7f455243313135353a207472616e7366657220746f206e6f6e204552433131353560008201527f526563656976657220696d706c656d656e746572000000000000000000000000602082015250565b6000613726603483612286565b9150613731826136ca565b604082019050919050565b6000602082019050818103600083015261375581613719565b9050919050565b7f455243313135353a204552433131353552656365697665722072656a6563746560008201527f6420746f6b656e73000000000000000000000000000000000000000000000000602082015250565b60006137b8602883612286565b91506137c38261375c565b604082019050919050565b600060208201905081810360008301526137e7816137ab565b9050919050565b600060a0820190506138036000830188612922565b6138106020830187612922565b818103604083015261382281866128a2565b9050818103606083015261383681856128a2565b9050818103608083015261384a8184613536565b9050969550505050505056fea2646970667358221220ae69ee8a971ca15e3d5f551caff0954d02360ec9be9c2917e090eef6ca36533564736f6c6343000811003368747470733a2f2f697066732e696f2f697066732f516d56773773333156364e5a6133706d567070776965667837365a4c7031486a32466f6a484c7463346457556356",
  "linkReferences": {},
  "deployedLinkReferences": {}
}